:1000000000040010E5000000D5000000D900000049
:1000100000000000000000000000000000000000E0
:1000200000000000000000000000000000000000D0
:100030000000000000000000DD000000E100000002
:100040003D0100003D010000000000003D010000F6
:100050003D0100003D010000000000000000000024
:100060003D0100003D010000510400003D01000081
:100070003D0100003D010000000000003D010000C6
:100080000000000000000000000000000000000070
:100090000000000000000000000000000000000060
:1000A0003D0100003D0100003D0100003D01000058
:1000B0003D0100003D0100003D0100003D01000048
:1000C000DC07000000000010040200000402001021
:1000D0002000000000B5FEE700B5FEE700B5FEE732
:1000E00000B5FEE770B5114B11480AE01D6859686C
:1000F0009C6800220C3302E05659043240C1A242EF
:10010000FAD38342F2D309E019685D680A1C083308
:1001100000E001C2561AAE4202D2FAE7054C0020B6
:10012000A342F1D300F0B7FAFEE7C046C0000000DA
:10013000CC000000D400000000B5FEE700B5FEE7EB
:10014000FFFFFFFFFFFFFFFFFFFFFFFFFFFFFFFFBF
:10015000FFFFFFFFFFFFFFFFFFFFFFFFFFFFFFFFAF
:10016000FFFFFFFFFFFFFFFFFFFFFFFFFFFFFFFF9F
:10017000FFFFFFFFFFFFFFFFFFFFFFFFFFFFFFFF8F
:10018000FFFFFFFFFFFFFFFFFFFFFFFFFFFFFFFF7F
:10019000FFFFFFFFFFFFFFFFFFFFFFFFFFFFFFFF6F
:1001A000FFFFFFFFFFFFFFFFFFFFFFFFFFFFFFFF5F
:1001B000FFFFFFFFFFFFFFFFFFFFFFFFFFFFFFFF4F
:1001C000FFFFFFFFFFFFFFFFFFFFFFFFFFFFFFFF3F
:1001D000FFFFFFFFFFFFFFFFFFFFFFFFFFFFFFFF2F
:1001E000FFFFFFFFFFFFFFFFFFFFFFFFFFFFFFFF1F
:1001F000FFFFFFFFFFFFFFFFFFFFFFFFFFFFFFFF0F
:10020000FFFFFFFFFFFFFFFFFFFFFFFFFFFFFFFFFE
:10021000FFFFFFFFFFFFFFFFFFFFFFFFFFFFFFFFEE
:10022000FFFFFFFFFFFFFFFFFFFFFFFFFFFFFFFFDE
:10023000FFFFFFFFFFFFFFFFFFFFFFFFFFFFFFFFCE
:10024000FFFFFFFFFFFFFFFFFFFFFFFFFFFFFFFFBE
:10025000FFFFFFFFFFFFFFFFFFFFFFFFFFFFFFFFAE
:10026000FFFFFFFFFFFFFFFFFFFFFFFFFFFFFFFF9E
:10027000FFFFFFFFFFFFFFFFFFFFFFFFFFFFFFFF8E
:10028000FFFFFFFFFFFFFFFFFFFFFFFFFFFFFFFF7E
:10029000FFFFFFFFFFFFFFFFFFFFFFFFFFFFFFFF6E
:1002A000FFFFFFFFFFFFFFFFFFFFFFFFFFFFFFFF5E
:1002B000FFFFFFFFFFFFFFFFFFFFFFFFFFFFFFFF4E
:1002C000FFFFFFFFFFFFFFFFFFFFFFFFFFFFFFFF3E
:1002D000FFFFFFFFFFFFFFFFFFFFFFFFFFFFFFFF2E
:1002E000FFFFFFFFFFFFFFFFFFFFFFFFFFFFFFFF1E
:1002F000FFFFFFFFFFFFFFFFFFFFFFFFFFFFFFFF0E
:10030000074B1B68074A12685343074A11685B187A
:1003100013601B041B0E5B00044AD05A7047C04692
:10032000080200100C02001004020010000000106F
:1003300008B5021C064B186004490348002300F06E
:1003400014FA044B186008BD000000000100000012
:10035000080200100C020010074B40201A1DD16F3C
:100360000143D1675968054A0A405A60596880229A
:10037000D2000A435A60704700800440FFFBFFFF31
:10038000094A8023D1581943D150084BFC225242CC
:100390001A60074ADA60074A1A6141214942E0229D
:1003A000520099507047C0460080044000C0004091
:1003B000FFFFFF01030002FF38B500F0A3F8FFF7CD
:1003C000CBFF00F03DF91E4B1868FA21890000F0C0
:1003D00066F900F053F81B480621002200F074F87B
:1003E000FFF7CEFF1848FFF7A3FF002000F02EF91B
:1003F000012000F02BF9022000F028F9032000F082
:1004000025F90022114B1A601C1C1D1C0DE0002058
:1004100000F01CF9012000F019F9022000F016F993
:10042000032000F013F900232B60FFF769FF002180
:1004300000F018F9236801332360642BF5D9E6E74F
:100440000002001000800540301100001C02001066
:1004500000B5074B0122D968114208D0DA60054B7C
:100460001A6801321A60044B1A6801321A6000BD22
:1004700000400040140200101002001010B50E4B96
:100480008022191DCC6FD2001443CC675C68802198
:100490008C435C605C6821435960084B0021196003
:1004A000074B802118601868090601431960012173
:1004B0009960044B1A6010BD0080044014020010C3
:1004C0000040004000E100E0F0B50C4B0124DC6787
:1004D0000B4B80261D1DEF6F36013E43EE675D68B6
:1004E000A5435D605D6825435D6004234162426011
:1004F000036003681C430460F0BDC04604E100E0F3
:100500000080044070B51D4D00206B6ADB051B0F99
:10051000013B0E2B02D81A4A9B009858696A2A6F31
:100520000326164B3240174C022A0CD0B24212D08E
:10053000012A03D11B6C1E40022E01D0124B00E099
:100540000023236012E01F2319404900023100F00C
:10055000A6F820600AE0196C0A40022AF0D09B68D5
:100560001F2009491840013041432160054CA96F03
:10057000206800F094F8206070BDC0460080044000
:10058000A007000000020010001BB700F0B5224CCD
:10059000224F231C85B094330122029008261A6052
:1005A0003A1DD667221DD06F8021C9010143D16752
:1005B00062681B4DB24362606268324362601968D0
:1005C000184B186800F06BF8042302992B60D84090
:1005D000019000F064F8231CF0330138FF222862F8
:1005E0001A601868296A1B68029A0393019B0130FC
:1005F00001315143584300F052F8039AF434D34385
:10060000C01882231B012060AB603E602B68012272
:1006100013432B6005B0F0BD0080044000E100E012
:10062000004006400002001000B5044A042391680F
:100630001942FCD0014BD86100BDC04600400640C5
:1006400008B5E1204002FFF7A1FF08BD10B5041C6A
:100650002A20FFF7E9FF5420FFF7E6FFE0B2FFF79B
:10066000E3FF10BD38B5041C2A200D1CFFF7DCFF8A
:100670006420FFF7D9FF200AFFF7D6FF4420FFF7D9
:10068000D3FFE0B2FFF7D0FF5020FFF7CDFFE8B275
:10069000FFF7CAFF38BD08B5FFF78EFE08BD002979
:1006A00031D00122D207030901E009011209994260
:1006B000FBD9430801E0490052089942FBD900E008
:1006C0004908401A07D35241FAD3014610467047F1
:1006D00049084018F7D29218FAD34018014610463C
:1006E0007047CB0F00D04942021000D54042534022
:1006F00008B5FFF7D4FF0CBC521000D34042002ACB
:1007000000D549421847F446002000F047F86047FA
:10071000F0B517001F4323D001264408CF073C4300
:100720004D08A71A2F469F4103D392185B4101360B
:10073000F7E70024002505E05208DF073A435B088D
:1007400024196D41871A0F469F4102D3801A99419F
:100750000134013EF0D102460B4620462946F0BD49
:100760000020002100F01AF8F0BD30B5DD0F02D0F6
:100770005242A441E31ACC17654002D54042A4413D
:10078000611AFFF7C5FF6D1002D34042A441611A00
:10079000002D02D55242A441E31A30BD704700003B
:1007A00020A1070000350C00E0C81000C05C150057
:1007B000006A180040771B0080841E00C091210051
:1007C000009F240040AC2700E032290020402C008C
:0C07D000604D2F0000D4300040E13300E9
:1007DC0000020C021902250232023E024B025702A1
:1007EC00640270027C0289029502A102AD02B80279
:1007FC00C402D002DB02E702F202FD02080312037C
:10080C001D03270332033C0345034F0358036203C4
:10081C006B0373037C0384038C0394039C03A30377
:10082C00AA03B103B803BE03C403CA03CF03D503A1
:10083C00D903DE03E203E603EA03EE03F103F40358
:10084C00F603F803FA03FC03FD03FE03FF03FF03A7
:10085C00FF03FF03FF03FE03FD03FB03F903F70391
:10086C00F503F203EF03EC03E803E403E003DC031A
:10087C00D703D203CD03C703C103BB03B403AE0339
:10088C00A703A003980390038803800378036F03E6
:10089C0066035D0354034A03400337032C0322030E
:1008AC0018030D030203F702EC02E102D502CA029F
:1008BC00BE02B302A7029B028F02820276026A0278
:1008CC005E025102450238022C021F02120206027D
:1008DC00F901ED01E001D301C701BA01AE01A1019B
:1008EC00950189017D017001640158014C014101A0
:1008FC0035012A011E0113010801FD00F200E70079
:10090C00DD00D300C800BF00B500AB00A200990009
:10091C00900087007F0077006F0067005F00580031
:10092C0051004B0044003E00380032002D002800DE
:10093C0023001F001B001700130010000D000A00FD
:10094C000800060004000200010000000000000086
:10095C000000000001000200030005000700090070
:10096C000B000E001100150019001D0021002600BF
:10097C002A00300035003B00410047004E00550076
:10098C005C0063006B0073007B0083008C009400A0
:10099C009D00A700B000BA00C300CD00D800E20053
:1009AC00ED00F70002010D01180124012F013B019C
:1009BC00470152015E016A01760183018F019B019F
:1009CC00A801B401C101CD01DA01E601F301000275
:0409DC0080C3C9010A
:04000003000000E514
:00000001FF
