:1000000000040010E5000000D5000000D900000049
:1000100000000000000000000000000000000000E0
:1000200000000000000000000000000000000000D0
:100030000000000000000000DD00000025090000B5
:100040003D0100003D01000000000000490A0000E1
:100050003D0100003D010000000000000000000024
:100060003D0100003D0100003D0100003D01000098
:100070003D0100003D010000000000003D010000C6
:100080000000000000000000000000000000000070
:100090000000000000000000000000000000000060
:1000A0003D0100003D0100003D0100003D01000058
:1000B0003D0100003D0100003D0100003D01000048
:1000C000B80E000000000010040000000400001042
:1000D0007401000000B5FEE700B5FEE700B5FEE7DD
:1000E00000B5FEE770B5114B11480AE01D6859686C
:1000F0009C6800220C3302E05659043240C1A242EF
:10010000FAD38342F2D309E019685D680A1C083308
:1001100000E001C2561AAE4202D2FAE7054C0020B6
:10012000A342F1D300F0D6FCFEE7C046C0000000B9
:10013000CC000000D400000000B5FEE700B5FEE7EB
:10014000FFFFFFFFFFFFFFFFFFFFFFFFFFFFFFFFBF
:10015000FFFFFFFFFFFFFFFFFFFFFFFFFFFFFFFFAF
:10016000FFFFFFFFFFFFFFFFFFFFFFFFFFFFFFFF9F
:10017000FFFFFFFFFFFFFFFFFFFFFFFFFFFFFFFF8F
:10018000FFFFFFFFFFFFFFFFFFFFFFFFFFFFFFFF7F
:10019000FFFFFFFFFFFFFFFFFFFFFFFFFFFFFFFF6F
:1001A000FFFFFFFFFFFFFFFFFFFFFFFFFFFFFFFF5F
:1001B000FFFFFFFFFFFFFFFFFFFFFFFFFFFFFFFF4F
:1001C000FFFFFFFFFFFFFFFFFFFFFFFFFFFFFFFF3F
:1001D000FFFFFFFFFFFFFFFFFFFFFFFFFFFFFFFF2F
:1001E000FFFFFFFFFFFFFFFFFFFFFFFFFFFFFFFF1F
:1001F000FFFFFFFFFFFFFFFFFFFFFFFFFFFFFFFF0F
:10020000FFFFFFFFFFFFFFFFFFFFFFFFFFFFFFFFFE
:10021000FFFFFFFFFFFFFFFFFFFFFFFFFFFFFFFFEE
:10022000FFFFFFFFFFFFFFFFFFFFFFFFFFFFFFFFDE
:10023000FFFFFFFFFFFFFFFFFFFFFFFFFFFFFFFFCE
:10024000FFFFFFFFFFFFFFFFFFFFFFFFFFFFFFFFBE
:10025000FFFFFFFFFFFFFFFFFFFFFFFFFFFFFFFFAE
:10026000FFFFFFFFFFFFFFFFFFFFFFFFFFFFFFFF9E
:10027000FFFFFFFFFFFFFFFFFFFFFFFFFFFFFFFF8E
:10028000FFFFFFFFFFFFFFFFFFFFFFFFFFFFFFFF7E
:10029000FFFFFFFFFFFFFFFFFFFFFFFFFFFFFFFF6E
:1002A000FFFFFFFFFFFFFFFFFFFFFFFFFFFFFFFF5E
:1002B000FFFFFFFFFFFFFFFFFFFFFFFFFFFFFFFF4E
:1002C000FFFFFFFFFFFFFFFFFFFFFFFFFFFFFFFF3E
:1002D000FFFFFFFFFFFFFFFFFFFFFFFFFFFFFFFF2E
:1002E000FFFFFFFFFFFFFFFFFFFFFFFFFFFFFFFF1E
:1002F000FFFFFFFFFFFFFFFFFFFFFFFFFFFFFFFF0E
:10030000074B40201A1DD16F0143D1675968054A38
:100310000A405A6059688022D2000A435A607047E6
:1003200000800440FFFBFFFF00B5031C3038C0B263
:1003300009280ED91A1C413A052A02D8181C373848
:1003400006E01A1C613A0020052A02D8181C57380A
:10035000C0B200BDF7B500234D4A0DE02C2E07D1E9
:100360000020D0544B1CDBB2D65C303EF6B207E026
:100370000133202B00D189E0D65CD9B2002EEDD11B
:10038000731EDBB20020042B00D980E0012B0CD8B7
:1003900002E00130C0B201E03D493E4A0B5C13541B
:1003A000002BF6D13C4B1E706EE03B4F032E08D164
:1003B000374A384B1178303919705278303A5A70C0
:1003C0005EE0042E5ED1324C2078FFF7ADFF019045
:1003D0006078FFF7A9FF019A2E4D1301184328708A
:1003E000A078FFF7A1FF0190E078FFF79DFF019A49
:1003F0001301184368702079FFF796FF0190607928
:10040000FFF792FF019A13011843A870A079FFF734
:100410008BFF0190E079FFF787FF019A13011843E2
:10042000E870207AFFF780FF0190607AFFF77CFF89
:10043000019A130118432871A07AFFF775FF019004
:10044000E07AFFF771FF019A130118436871207B6E
:10045000FFF76AFF0190607BFFF766FF019A1301C7
:100460001843A871A07BFFF75FFF0190E07BFFF7C7
:100470005BFF019A13011843E871237C303B2B7218
:100480003E7001E005233B70012000E00020FEBD2E
:10049000380100101100001005000010084B8021E9
:1004A000DA6F0A43DA67074B074A41211A60074AA5
:1004B0004942DA60064A1A61E022520099507047B8
:1004C0000480044000C000400400FFFFFFFFFF0164
:1004D00003FF02FFF8B500F0E1F9FFF711FFE1209B
:1004E000800200F05FFA00F025FA2222314805214F
:1004F00000F0B6F9FFF7D2FF2F4B48221A706522A1
:100500005A706C229A70DA706F221A7121225A7115
:100510002A4E00222A4F9A71317805291ED8081CCC
:1005200000F042FB0306060D13182348022100E0E9
:10053000214800F04BF8212000F0C0FA0EE01E4BDD
:100540001878597800F0A8F8F5E71B48017A00F010
:10055000BFF8F0E763233B700023337000F016FA16
:10056000184C194D206002E02B78002B05D1206833
:1005700000F012FA291C3128F6D90A78104B002A0B
:100580000CD000220A701A70FFF7E4FE002801D098
:100590002E2000E03F2000F091FABDE71A780132EA
:1005A000D2B21A700B2AB7D900F0EAF900F040F97C
:1005B000B2E7C046008005401100001005000010A1
:1005C000040000103400001010000010F7B5041CE7
:1005D0000D1C00F083FA1F2858D8201C00F07EFA6A
:1005E0000023C70080222A4901971E1C52005F1871
:1005F00001333E709342FAD1002212E0A65C203E05
:10060000F6B25E2E0CD8F700BE1B224F0023BE1997
:100610009446F25CCA540133072BFAD16246073183
:1006200001328242EAD1281C00F0D6F80025184C8D
:1006300029E02178012000F0C1F86178022000F063
:10064000BDF8A178032000F0B9F8E178042000F0AB
:10065000B5F82179052000F0B1F86179062000F0A5
:10066000ADF8A179072000F0A9F8E179082000F0A1
:10067000A5F800F08BF90135061C301C00F08CF950
:100680000428FAD90134019FBD42D2D1F7BDC0463A
:1006900038000010B80B000038B504220023824255
:1006A0005B415B42051C081C1D4000F095F8074BA0
:1006B000ED0001245D192B19013BE0B219780134DA
:1006C00000F07CF8092CF6D138BDC046510E000070
:1006D00010B5041C081C00F07FF82178012000F000
:1006E0006DF86178022000F069F8A178032000F02D
:1006F00065F8E178042000F061F82179052000F028
:100700005DF86179062000F059F8A179072000F022
:1007100055F8E179082000F051F810BDF0B5012A34
:1007200002D0032A06D102E00022141C06E00A1CB3
:10073000041C03E00A1C0021041C081C1E4E022598
:10074000B7681D4B2F42FBD0E025ED042C439C6184
:1007500001249D682542FCD0174C646902249D68E1
:100760002542FCD0E024E4042243134CA261012280
:100770009C681442FCD0104A526902229C681442C0
:10078000FCD0E022D20410430B4A90610122986809
:100790001042FCD0084A5269022298681042FCD0EC
:1007A000E222D2041143044A916101229968114264
:1007B000FCD0014B5B69F0BD0080054008B5024BE1
:1007C0001A78FFF7ABFF08BD0600001008B503223A
:1007D000FFF7A4FF08BD000038B50721051C0B205A
:1007E000FFF7F4FF09200021FFF7F0FF0C200121A3
:1007F000FFF7ECFF0F200021FFF7E8FF0124201C8A
:1008000001340021E4B2FFF7E1FF092CF7D10A20FF
:100810000F21FFF7DBFF0C2000210122022D00D069
:100820000222FFF77BFF014B1D7038BD0600001050
:10083000084B8E22920099588D2292009950064BB7
:1008400002221A60054B04211A690A431A6130BF5B
:100850007047C046008004400000024000ED00E008
:10086000F0B50C4B0124DC670B4B80261D1DEF6F90
:1008700036013E43EE675D68A5435D605D682543D4
:100880005D60042341624260036003681C430460AE
:10089000F0BDC04604E100E00080044070B51D4D8D
:1008A00000206B6ADB051B0F013B0E2B02D81A4A96
:1008B0009B009858696A2A6F0326164B3240174CE2
:1008C000022A0CD0B24212D0012A03D11B6C1E4066
:1008D000022E01D0124B00E00023236012E01F2300
:1008E00019404900023100F025F920600AE0196C36
:1008F0000A40022AF0D09B681F20094918400130A5
:1009000041432160054CA96F206800F013F9206075
:1009100070BDC046008004407C0E00000000001046
:10092000001BB700024B1A6801321A607047C046BC
:100930000800001010B50D4B00241C600C4B642106
:10094000186800F0F7F80B4B98420DD80A4B0B4A89
:1009500001385860106AC0210002000A09060143EC
:10096000116207229C601A6010BDC046080000108A
:1009700000000010FFFFFF0010E000E000ED00E0CD
:10098000014B00221A60704710E000E0014B18682C
:100990007047C04608000010014B1B68181A7047CA
:1009A00008000010F0B5244D244F2B1C85B0943363
:1009B0000122029008261A603A1DD6672A1DD06FC0
:1009C0008021C9010143D1676A681D4CB2436A6046
:1009D0006A6832436A6019681A4B186800F0AAF80E
:1009E000042302992360D840019000F0A3F82B1C47
:1009F000F0330138FF2220621A601868216A1B68F0
:100A0000019A0393029B013001315943504300F096
:100A100091F8039AF435D343C01882231B01286050
:100A20000422A36001233E60E36022612368012267
:100A30001343236005B0F0BD0080044000E100E0F6
:100A4000004006400000001000B5184B9A68181CC2
:100A5000D30729D5164B1A78191C002A01D1154B3A
:100A60001A7043690D2B1FD002D80A2B0FD11BE03F
:100A70003C2B02D03E2B0AD102E000230B7013E086
:100A80000C4B01221A700A4B00221A700CE00A4922
:100A90008B540132064BD2B21A703F2A01D9002280
:100AA0001A701B780022CA5400BDC04600400640A0
:100AB0000C000010100000103801001000B5044AAE
:100AC000042391681942FCD0014BD86100BDC04697
:100AD0000040064008B5FFF7FDFC08BD30B5411CDD
:100AE000032305E002780130002A01D1401A1BE0FF
:100AF0001842F7D101E0043000E00C4A03680C4DC5
:100B00005C199C431442F6D0DCB2421C002C0AD083
:100B1000FF242402821C234205D0FF242404C21C8B
:100B2000234200D0021D501A30BDC0468080808014
:100B3000FFFEFEFE002931D00122D207030901E0A9
:100B4000090112099942FBD9430801E04900520802
:100B50009942FBD900E04908401A07D35241FAD321
:100B600001461046704749084018F7D29218FAD348
:100B70004018014610467047CB0F00D04942021082
:100B800000D54042534008B5FFF7D4FF0CBC5210CB
:100B900000D34042002A00D549421847F4460020BD
:100BA00000F001F8604770478C4671460139095CD6
:100BB00049008E44614670470000000000000000BC
:100BC00000005F5F000000070700000707247E7E2B
:100BD000247E7E2400242E6B6B3A12006636180C9D
:100BE0006662307A4F5D37725000000007070000E0
:100BF0000000003E7F63410041637F3E0000082A01
:100C00003E1C1C3E2A0008083E3E08080080E060AA
:100C100000000000080808080808000000606000E4
:100C200000006030180C0603003E7F49457F3E00FF
:100C300040427F7F404000426371594F460021612E
:100C4000454F7B3100181C167F7F100027674545F4
:100C50007D39003E7F49497930000171790D0703E4
:100C600000367F49497F3600064F49693F1E000024
:100C70000036360000000040763600000000081CF8
:100C800036634100242424242424004163361C08B4
:100C90000000020351590F06003E7F415D575E0080
:100CA0007C7E13137E7C007F7F49497F36003E7F28
:100CB00041416322007F7F41633E1C007F7F4949A1
:100CC0004941007F7F09090901003E7F4149797947
:100CD000007F7F08087F7F0000417F7F4100002068
:100CE0006040407F3F007F7F1C366341007F7F4034
:100CF0004040407F7F060C067F7F007F7F0E1C7F79
:100D00007F003E7F41417F3E007F7F09090F060043
:100D10003E7F51217F5E007F7F09197F6600266F2D
:100D200049497B320001017F7F0101003F7F404044
:100D30007F7F001F3F60603F1F7F7F3018307F7FC5
:100D40000063771C1C776300070F78780F0700613A
:100D500071594D47430000007F7F41410003060C5D
:100D60001830600041417F7F0000080C0603060C2C
:100D7000084040404040404002060C08000000008F
:100D8000207454547C78007F7F44447C3800387C45
:100D90004444440000387C44447F7F00387C5454F1
:100DA0005C1800047E7F0505000098BCA4A4FC7CB0
:100DB000007F7F04047C780000447D7D400000803B
:100DC00080FD7D0000007F7F10386C440000417F73
:100DD0007F40007C7C0C180C7C78007C7C04047CBC
:100DE0007800387C44447C3800FCFC44447C380067
:100DF000387C4444FCFC007C7C04040C0800485C07
:100E0000545474240004043E7E4444003C7C40401E
:100E10007C7C001C3C60603C1C1C7C6030607C1C4A
:100E200000446C38386C44009CBCA0A0FC7C00449E
:100E300064745C4C440000083E774141000000FFB0
:100E4000FF0000004141773E08000C06060C181810
:100E50000C38383838FE7C381010387CFE3838387A
:100E600038080CFEFFFE0C080010307FFF7F3010AA
:100E700000002C4C40404C2C0000000020A107003A
:100E800000350C00E0C81000C05C1500006A1800B6
:100E900040771B0080841E00C0912100009F240029
:100EA00040AC2700E032290020402C00604D2F008C
:080EB00000D4300040E13300E2
:040EB80080C3C90129
:04000003000000E514
:00000001FF
