:100000000004001009010000D5000000D900000024
:1000100000000000000000000000000000000000E0
:1000200000000000000000000000000000000000D0
:100030000000000000000000DD000000E100000002
:100040004D0100004D010000000000004D010000C6
:100050004D0100004D010000000000000000000004
:100060004D0100004D010000510400004D01000051
:100070004D0100004D010000000000004D01000096
:100080000000000000000000000000000000000070
:100090000000000000000000000000000000000060
:1000A0004D0100004D0100004D0100004D01000018
:1000B0004D0100004D0100004D0100004D01000008
:1000C000E809000000000010040000000400001017
:1000D0000800000000B5FEE700B5FEE700B5FEE74A
:1000E00000B5FEE710B5002302E01C58043310C130
:1000F0009342FAD310BD10B5031C002200E004C3E4
:100100001C1A8C42FBD310BD38B50C4C0C4D05E0CD
:1001100020686168A2680C34FFF7E4FFAC42F7D3B3
:1001200005E0206861680834FFF7E5FF00E0054D51
:10013000AC42F6D300F0EFFBFEE7C046C000000083
:10014000CC000000D400000000B5FEE700B5FEE7DB
:10015000FFFFFFFFFFFFFFFFFFFFFFFFFFFFFFFFAF
:10016000FFFFFFFFFFFFFFFFFFFFFFFFFFFFFFFF9F
:10017000FFFFFFFFFFFFFFFFFFFFFFFFFFFFFFFF8F
:10018000FFFFFFFFFFFFFFFFFFFFFFFFFFFFFFFF7F
:10019000FFFFFFFFFFFFFFFFFFFFFFFFFFFFFFFF6F
:1001A000FFFFFFFFFFFFFFFFFFFFFFFFFFFFFFFF5F
:1001B000FFFFFFFFFFFFFFFFFFFFFFFFFFFFFFFF4F
:1001C000FFFFFFFFFFFFFFFFFFFFFFFFFFFFFFFF3F
:1001D000FFFFFFFFFFFFFFFFFFFFFFFFFFFFFFFF2F
:1001E000FFFFFFFFFFFFFFFFFFFFFFFFFFFFFFFF1F
:1001F000FFFFFFFFFFFFFFFFFFFFFFFFFFFFFFFF0F
:10020000FFFFFFFFFFFFFFFFFFFFFFFFFFFFFFFFFE
:10021000FFFFFFFFFFFFFFFFFFFFFFFFFFFFFFFFEE
:10022000FFFFFFFFFFFFFFFFFFFFFFFFFFFFFFFFDE
:10023000FFFFFFFFFFFFFFFFFFFFFFFFFFFFFFFFCE
:10024000FFFFFFFFFFFFFFFFFFFFFFFFFFFFFFFFBE
:10025000FFFFFFFFFFFFFFFFFFFFFFFFFFFFFFFFAE
:10026000FFFFFFFFFFFFFFFFFFFFFFFFFFFFFFFF9E
:10027000FFFFFFFFFFFFFFFFFFFFFFFFFFFFFFFF8E
:10028000FFFFFFFFFFFFFFFFFFFFFFFFFFFFFFFF7E
:10029000FFFFFFFFFFFFFFFFFFFFFFFFFFFFFFFF6E
:1002A000FFFFFFFFFFFFFFFFFFFFFFFFFFFFFFFF5E
:1002B000FFFFFFFFFFFFFFFFFFFFFFFFFFFFFFFF4E
:1002C000FFFFFFFFFFFFFFFFFFFFFFFFFFFFFFFF3E
:1002D000FFFFFFFFFFFFFFFFFFFFFFFFFFFFFFFF2E
:1002E000FFFFFFFFFFFFFFFFFFFFFFFFFFFFFFFF1E
:1002F000FFFFFFFFFFFFFFFFFFFFFFFFFFFFFFFF0E
:10030000074B40201A1DD16F0143D1675968054A38
:100310000A405A6059688022D2000A435A607047E6
:1003200000800440FFFBFFFF00B50120A0238840B0
:100330001B06011C002A01D0882200E08A229201BB
:10034000995000BD10B5A020802300069B01012418
:10035000002A05D0C2588C40211C1143C15003E033
:10036000C2588C40A243C25010BD000000B5094BDA
:100370008021DA6F0A43DA67074B002802D0FF2298
:10038000524200E0054A1A604121E02249425200EF
:10039000995000BD0480044000C00040FF01FFFFF1
:1003A00030B589B000F0E0F9FFF7AAFFE120400284
:1003B00000F01EFA234BFA211868890000F0AFFA0A
:1003C00000F05CF80020FFF7D1FF20211E4A6846AC
:1003D00000F07CFA0120FFF7C9FF0020011C012278
:1003E000FFF7B0FF0020011C021CFFF79DFF00205B
:1003F000021C0421FFF7A6FF0020021C0321FFF7C7
:10040000A1FF00200221021CFFF79CFFA0258023F2
:100410002D069B01EA5804210A43EA50882304244C
:100420009B01FA20EC50400000F04EF88A239B011B
:10043000FA20EC50400000F047F8044800F088F93A
:10044000ECE7C04600000010B80B00009209000065
:1004500000B5074B0122D968114208D0DA60054B7C
:100460001A6801321A60044B1A6801321A6000BD22
:1004700000400040080000100400001010B50E4BB2
:100480008022191DCC6FD2001443CC675C68802198
:100490008C435C605C6821435960084B0021196003
:1004A000074B802118601868090601431960012173
:1004B0009960044B1A6010BD0080044008000010D1
:1004C0000040004000E100E000B5034B00221A604C
:1004D0001A688242FCD300BD08000010014B186866
:1004E0007047C04604000010014B1B68181A704783
:1004F0000400001008B500F0C9F908BD08B5031ED6
:1005000005D01A6811701A6801321A6002E0081CDE
:10051000FFF7F0FF08BDF7B5141C002201900F1C77
:100520002026944201DC0CE00132B95C0029FBD1A9
:10053000A24201DAA41A00E00C1C20269A0700D57A
:1005400030260025DA070CD4251C04E00198311C64
:10055000FFF7D4FF013D002DF8DCE543ED17254002
:10056000641B7F1B03E00198FFF7C8FF0135795D2D
:100570000029F8D1271C04E00198311CFFF7BEFFC9
:10058000013F002FF8DCE043C01704402819FEBDEE
:10059000F0B589B00290171C0E9E0C1E09D105AB58
:1005A00030221A705970321C191C0F9BFFF7B3FFD1
:1005B0003FE000220192002B06D00A2F04D1944282
:1005C00002DA01236442019305AB0022DA72109B28
:1005D0006D463A3B1F3503930FE0201C391C00F099
:1005E0009EF9092901DD039BC9183031013D2970AD
:1005F000201C391C00F093F9041C002CEDD1019C47
:10060000002C0FD0002E09D00F9A920706D5029821
:100610002D21FFF773FF013E012403E0013D2D234F
:100620002B7000240298291C321C0F9BFFF773FFCC
:10063000201809B0F0BD0000F0B589B0061C0D1CF3
:100640000592002477E0252B6FD16978002975D0B9
:100650006A1C252968D000232D2901D1AA1C012359
:10066000151C02E00220013503432A78302AF9D014
:1006700000220A279C4602E07A43013512182978A5
:10068000081C3038C3B2092BF6D96346732907D149
:100690000599081D09680590002941D12B493FE0C3
:1006A00064290ED10599081D0968019361230590FD
:1006B00000920293301C0A220123FFF769FF2418DD
:1006C00038E0782907D10599081D0590096801933C
:1006D0000092612308E058290AD10599081D059068
:1006E00009680193009241230293301C10220BE011
:1006F00075290BD10599081D09680193612305909F
:1007000000920293301C0A220023D6E7632911D1FC
:100710000598011D0068059107A908700020487020
:10072000301CFFF7F8FECAE7151C2978301CFFF7CC
:10073000E5FE013401352B78002B84D1002E02D048
:10074000336800221A70201C09B0F0BDA209000015
:100750000FB407B504AA02CA00200192FFF76CFF8C
:1007600003B008BC04B0184770B51D4D00206B6A7B
:10077000DB051B0F013B0E2B02D81A4A9B00985831
:10078000696A2A6F0326164B3240174C022A0CD096
:10079000B24212D0012A03D11B6C1E40022E01D09E
:1007A000124B00E00023236012E01F231940490090
:1007B000023100F0B4F820600AE0196C0A40022A05
:1007C000F0D09B681F200949184001304143216047
:1007D000054CA96F206800F0A2F8206070BDC046EB
:1007E00000800440AC09000000000010001BB700AE
:1007F000F0B5224C224F231C85B094330122029085
:1008000008261A603A1DD667221DD06F8021C901C3
:100810000143D16762681B4DB24362606268324334
:1008200062601968184B186800F079F8042302997F
:100830002B60D840019000F072F8231CF03301388F
:10084000FF2228621A601868296A1B68029A0393BB
:10085000019B013001315143584300F060F8039A85
:10086000F434D343C01882231B012060AB603E6088
:100870002B68012213432B6005B0F0BD00800440BB
:1008800000E100E0004006400000001000B5044A0E
:10089000042391681942FCD0014BD86100BDC046C9
:1008A0000040064000B5044A012391681942FCD07B
:1008B000014B5869C0B200BD00400640024B986829
:1008C000012318407047C04600400640F7B500902D
:1008D0000E1C0192FFF702FE071C18E0FFF7EEFF67
:1008E00000280ED0FFF7FAFD009B071C5C19FFF7EC
:1008F000D9FF2070012D01D90A280AD00135013E07
:1009000005E0381CFFF7F0FD019B984201D8002E4E
:10091000E4D1281CFEBD08B5FFF742FD08BD002943
:1009200031D00122D207030901E0090112099942DD
:10093000FBD9430801E0490052089942FBD900E085
:100940004908401A07D35241FAD30146104670476E
:1009500049084018F7D29218FAD3401801461046B9
:100960007047CB0F00D04942021000D5404253409F
:1009700008B5FFF7D4FF0CBC521000D34042002A48
:1009800000D549421847F446002000F001F86047BE
:10099000704748656C6C6F2C204C504338313021C7
:1009A0000A00286E756C6C290000000020A1070069
:1009B00000350C00E0C81000C05C1500006A18008B
:1009C00040771B0080841E00C0912100009F2400FE
:1009D00040AC2700E032290020402C00604D2F0061
:0809E00000D4300040E13300B7
:0409E80000366E0166
:0400000300000109EF
:00000001FF
