:1000000000040010E5000000D5000000D900000049
:1000100000000000000000000000000000000000E0
:1000200000000000000000000000000000000000D0
:100030000000000000000000DD00000001070000DB
:1000400051010000510100000000000051010000BA
:1000500051010000510100000000000000000000FC
:100060005101000051010000DD04000051010000B9
:10007000510100005101000000000000510100008A
:100080000000000000000000000000000000000070
:100090000000000000000000000000000000000060
:1000A0005101000051010000510100005101000008
:1000B00051010000510100005101000051010000F8
:1000C000600C000000000010080000000800001094
:1000D0002400000000B5FEE700B5FEE700B5FEE72E
:1000E00000B5FEE7F8B5164B164A9A4220D2131C0B
:1000F0000025134C1E68596898680C33002805D0F9
:100100002A1C975980C104329042FAD8A342F1D3F5
:100110000FE000250C4C196858680833002804D0FB
:100120000A1C20C2561A8642FBD3A342F3D303E033
:10013000044B054A9342ECD300F06EFBFEE7C04649
:10014000CC000000C0000000D400000000B5FEE7B5
:1001500000B5FEE7FFFFFFFFFFFFFFFFFFFFFFFF11
:10016000FFFFFFFFFFFFFFFFFFFFFFFFFFFFFFFF9F
:10017000FFFFFFFFFFFFFFFFFFFFFFFFFFFFFFFF8F
:10018000FFFFFFFFFFFFFFFFFFFFFFFFFFFFFFFF7F
:10019000FFFFFFFFFFFFFFFFFFFFFFFFFFFFFFFF6F
:1001A000FFFFFFFFFFFFFFFFFFFFFFFFFFFFFFFF5F
:1001B000FFFFFFFFFFFFFFFFFFFFFFFFFFFFFFFF4F
:1001C000FFFFFFFFFFFFFFFFFFFFFFFFFFFFFFFF3F
:1001D000FFFFFFFFFFFFFFFFFFFFFFFFFFFFFFFF2F
:1001E000FFFFFFFFFFFFFFFFFFFFFFFFFFFFFFFF1F
:1001F000FFFFFFFFFFFFFFFFFFFFFFFFFFFFFFFF0F
:10020000FFFFFFFFFFFFFFFFFFFFFFFFFFFFFFFFFE
:10021000FFFFFFFFFFFFFFFFFFFFFFFFFFFFFFFFEE
:10022000FFFFFFFFFFFFFFFFFFFFFFFFFFFFFFFFDE
:10023000FFFFFFFFFFFFFFFFFFFFFFFFFFFFFFFFCE
:10024000FFFFFFFFFFFFFFFFFFFFFFFFFFFFFFFFBE
:10025000FFFFFFFFFFFFFFFFFFFFFFFFFFFFFFFFAE
:10026000FFFFFFFFFFFFFFFFFFFFFFFFFFFFFFFF9E
:10027000FFFFFFFFFFFFFFFFFFFFFFFFFFFFFFFF8E
:10028000FFFFFFFFFFFFFFFFFFFFFFFFFFFFFFFF7E
:10029000FFFFFFFFFFFFFFFFFFFFFFFFFFFFFFFF6E
:1002A000FFFFFFFFFFFFFFFFFFFFFFFFFFFFFFFF5E
:1002B000FFFFFFFFFFFFFFFFFFFFFFFFFFFFFFFF4E
:1002C000FFFFFFFFFFFFFFFFFFFFFFFFFFFFFFFF3E
:1002D000FFFFFFFFFFFFFFFFFFFFFFFFFFFFFFFF2E
:1002E000FFFFFFFFFFFFFFFFFFFFFFFFFFFFFFFF1E
:1002F000FFFFFFFFFFFFFFFFFFFFFFFFFFFFFFFF0E
:1003000010B5041C002805D00B4B984205D8632873
:1003100005D905E0FA24640002E0642400E06424C6
:10032000201C00F076FB054900F0B4FA00F024FB35
:10033000034B1880201C10BD2A2B0000FFA7AC3EE9
:100340001800001008B5FFF7DBFF08BD074A084B8F
:1003500019881388CB189BB213801B0A5B00054ACF
:10036000985A054BC01880B27047C046080000106C
:1003700018000010200A00000080FFFF074B8022B9
:1003800098584021014399505968054A0A405A60DB
:1003900059688022D2000A435A60704700800440A6
:1003A000FFFBFFFF094A8023D1581943D150084B66
:1003B000FC2252421A60074ADA60074A1A61412158
:1003C0004942E022520099507047C04600800440E4
:1003D00000C00040FFFFFF01030002FFF8B500F07E
:1003E000D1F8FFF7CBFFE120800200F0C1F900F067
:1003F0008FF9204B1868204900F012FA00F07EF8BF
:100400001E480121002200F09FF8FFF7CBFF1C4B94
:100410001868FFF797FF00221A4B1A6000F09CF94A
:10042000194B1860194C261C00272368002BFCD0A0
:100430003760FFF78BFF164B188001090F4800F05B
:1004400029F8114B186800F08DF996235B0098424B
:100450000AD90B4D286864302860FFF751FF2860E7
:1004600000F07AF9084B1860064B1A6801321A60DE
:10047000DBE7C04604000010545600000080054031
:100480000000001020000010240000100C000010DC
:100490002800001000B50B051B0DC0218901194370
:1004A000022283681A42FCD00A0AE023DB041343C9
:1004B0008361012283681A42FCD043690222836867
:1004C0001A42FCD0FF231940E223DB041943816167
:1004D000012283681A42FCD0436900BD00B5054B78
:1004E000DB68DA0704D50123024AD360024A1360AD
:1004F00000BDC046004000400C00001010B50E4B7F
:1005000080229C588021C9000C439C505C68944315
:100510005C605C6822435A600022084B1A60084BFA
:10052000186018688022120602431A6001229A603D
:10053000044B196010BDC04600800440100000103C
:100540000040004000E100E0F0B5802501240B4BA5
:100550005C510B4B5F59802636013E435E515D680E
:10056000A5435D605D6825435D6041624260042390
:10057000036003681C430460F0BDC04600E100E076
:100580000080044010B54B4B5B6ADB051B0F0F2B43
:1005900003D89B00484AD3589F4600201CE0474898
:1005A0001AE0474818E0474816E0474814E0474833
:1005B00012E0474810E047480EE047480CE0474843
:1005C0000AE0474808E0474806E0474804E0474853
:1005D00002E0474800E04748364B596A1B6F032248
:1005E0001340012B0AD0002B04D0022B23D0032B65
:1005F00058D129E0404A414B1A6053E02D4B1B6C07
:1006000003221340012B0AD0002B04D0022B0AD066
:10061000032B47D10BE0384A384B1A6042E0364A88
:10062000364B1A603EE00022344B1A603AE0324A00
:10063000324B1A6036E01F2319404900023100F0A6
:10064000EFF82E4B18602DE01A4B1B6C0322134061
:10065000012B10D0002B04D0022B16D0032B21D15C
:1006600017E0144B9B681F221A400132224B5A4359
:10067000224B1A6016E00F4B9B681F221A40013272
:100680001D4B5A431D4B1A600CE000221B4B1A6095
:1006900008E0084B9B681F221A400132164B5A4350
:1006A000164B1A60034B996F144C206800F0B8F891
:1006B000206010BD00800440200C000000350C00BC
:1006C000E0C81000C05C1500006A180040771B00ED
:1006D00080841E00C0912100009F240040AC2700B0
:1006E000E032290020402C00604D2F0000D4300063
:1006F00040E1330020A10700001BB70004000010F8
:10070000024B1A6801321A607047C046140000108C
:1007100008B50D4B1868642100F082F80B4B984225
:1007200010D80002000A0138094B5860094A106AC3
:100730000002000AC02109060143116200229A60EA
:1007400007221A6008BDC04604000010FFFFFF002A
:1007500010E000E000ED00E0014B18687047C04673
:1007600014000010014B1B68181A70471400001089
:10077000F8B55F4656464D464446F0B48146224C95
:10078000942201239A46A350204F80230826FE502E
:10079000E0588021C9010143E1506368B3436360BD
:1007A000636833436360A158194B186800F038F848
:1007B000184D04232B6000098046494600F030F8AC
:1007C00001382862F023FF22E250E058296AE258FB
:1007D000934601304346584301314A46514300F0A5
:1007E0001FF85A46D343C018F423E05082231B015C
:1007F000AB603E602B68524613432B603CBC904676
:100800009946A246AB46F8BD0080044000E100E0F6
:10081000040000100040064008B5FFF7DFFD08BDEA
:10082000002931D00122D207030901E00901120990
:100830009942FBD9430801E0490052089942FBD98B
:1008400000E04908401A07D35241FAD30146104646
:10085000704749084018F7D29218FAD34018014659
:1008600010467047CB0F00D04942021000D54042DD
:10087000534008B5FFF7D4FF0CBC521000D34042E0
:10088000002A00D549421847F446002000F001F83C
:1008900060477047F0B5C20DFF2422404DD0A24200
:1008A0004BD0CB0D234048D0A34246D00E1C802510
:1008B000D41A2D060B024640000228431D436B0844
:1008C000013B42089A4202DA211C7D3102E0211CE0
:1008D00052107E31F00F8024C0013F261A252404D7
:1008E0005200D71A00D43A1C5200D71A00D43A1C2E
:1008F0005200D71A00D43A1C5200D71A00D43A1C1E
:100900005200D71A00D43A1C5200D71A00D43A1C0D
:1009100097063843E841B2432042E1D05200D31A4F
:10092000DB43DB0FC018FD2902D8C90540181FE0C2
:10093000C00FC007002914DA1AE0FF2544002D0675
:10094000AC4214D84A00AA4211D80B1C03435B00E6
:100950001B0E0CD04840C00FC007230E08D0AA427F
:1009600003D0FF23DB05184302E0944200D1014885
:10097000F0BDC0460000C07F10B5802401022406EF
:10098000C30D21439E20C01A0A1CC240101C9D2B7F
:100990000BD9DAB29D2A01D8404206E08C4201D23E
:1009A000FE2A02D8180A014BC01810BDFFFFFF7FB6
:1009B00000B500282BD0030C01D1000402E08023F5
:1009C0001B05C918030E01D1000202E08023DB04DD
:1009D000C918030F01D1000102E080239B04C9184C
:1009E000830F01D1800002E080235B04C918002836
:1009F00001DB400002E080231B04C9188030031291
:100A00005918000601D101239943081C00E0002079
:100A100000BD08B58021C905FFF7CAFF08BD000069
:100A20000000240348066A098C0CAB0FC812E215BB
:100A3000F9180B1C1A1F2322282526281F2B112EDC
:100A4000FB30DF33BA368C39563C173FCE417A44FF
:100A50001C47B4493F4CBF4E33519B53F555425848
:100A6000825AB35CD75EEB60F162E864CF66A66839
:100A70006D6A236CC96D5E6FE2705472B573047554
:100A800041766B77847889797C7A5C7B297CE37CFE
:100A9000897D1D7E9C7E097F617FA67FD87FF57F43
:100AA000FF7FF57FD87FA67F617F097F9C7E1D7EBB
:100AB000897DE37C297C5C7B7C7A897984786B777F
:100AC00041760475B5735472E2705E6FC96D236C24
:100AD0006D6AA668CF66E864F162EB60D75EB35CCE
:100AE000825A4258F5559B533351BF4E3F4CB4493F
:100AF0001C477A44CE41173F563C8C39BA36DF3317
:100B0000FB30112E1F2B2628282523221A1F0B1CF1
:100B1000F918E215C812AB0F8C0C6A0948062403B9
:100B20000000DCFCB8F996F674F355F038ED1EEAD7
:100B300007E7F5E3E6E0DDDDD8DADAD7E1D4EFD197
:100B400005CF21CC46C974C6AAC3E9C032BE86BB54
:100B5000E4B84CB6C1B341B1CDAE65AC0BAABEA7EB
:100B60007EA54DA329A1159F0F9D189B31995A97DA
:100B70009395DD933792A2901E8FAC8D4B8CFC8A9F
:100B8000BF8995887C8777868485A484D7831D83D5
:100B90007782E3816481F7809F805A8028800B8070
:100BA00001800B8028805A809F80F7806481E381D8
:100BB00077821D83D783A484848577867C879588F4
:100BC000BF89FC8A4B8CAC8D1E8FA2903792DD932F
:100BD00093955A973199189B0F9D159F29A14DA365
:100BE0007EA5BEA70BAA65ACCDAE41B1C1B34CB6D4
:100BF000E4B886BB32BEE9C0AAC374C646C921CCDC
:100C000005CFEFD1E1D4DAD7D8DADDDDE6E0F5E3E0
:100C100007E71EEA38ED55F074F396F6B8F9DCFCF8
:100C20009A050000D60500009E050000A205000000
:100C3000A6050000AA050000AE050000B2050000F0
:100C4000B6050000BA050000BE050000C2050000A0
:100C5000C6050000CA050000CE050000D205000050
:080C6000B801000080C3C901C6
:04000003000000E514
:00000001FF
