:1000000000040010E5000000D5000000D900000049
:1000100000000000000000000000000000000000E0
:1000200000000000000000000000000000000000D0
:100030000000000000000000DD000000E100000002
:100040003D0100003D010000000000003D010000F6
:100050003D0100003D010000000000000000000024
:100060003D0100003D010000850400003D0100004D
:100070003D0100003D010000000000003D010000C6
:100080000000000000000000000000000000000070
:100090000000000000000000000000000000000060
:1000A0003D0100003D0100003D0100003D01000058
:1000B0003D0100003D0100003D0100003D01000048
:1000C000840700000000001004000000040000107D
:1000D0001400000000B5FEE700B5FEE700B5FEE73E
:1000E00000B5FEE770B5114B11480AE01D6859686C
:1000F0009C6800220C3302E05659043240C1A242EF
:10010000FAD38342F2D309E019685D680A1C083308
:1001100000E001C2561AAE4202D2FAE7054C0020B6
:10012000A342F1D300F0D1FAFEE7C046C0000000C0
:10013000CC000000D400000000B5FEE700B5FEE7EB
:10014000FFFFFFFFFFFFFFFFFFFFFFFFFFFFFFFFBF
:10015000FFFFFFFFFFFFFFFFFFFFFFFFFFFFFFFFAF
:10016000FFFFFFFFFFFFFFFFFFFFFFFFFFFFFFFF9F
:10017000FFFFFFFFFFFFFFFFFFFFFFFFFFFFFFFF8F
:10018000FFFFFFFFFFFFFFFFFFFFFFFFFFFFFFFF7F
:10019000FFFFFFFFFFFFFFFFFFFFFFFFFFFFFFFF6F
:1001A000FFFFFFFFFFFFFFFFFFFFFFFFFFFFFFFF5F
:1001B000FFFFFFFFFFFFFFFFFFFFFFFFFFFFFFFF4F
:1001C000FFFFFFFFFFFFFFFFFFFFFFFFFFFFFFFF3F
:1001D000FFFFFFFFFFFFFFFFFFFFFFFFFFFFFFFF2F
:1001E000FFFFFFFFFFFFFFFFFFFFFFFFFFFFFFFF1F
:1001F000FFFFFFFFFFFFFFFFFFFFFFFFFFFFFFFF0F
:10020000FFFFFFFFFFFFFFFFFFFFFFFFFFFFFFFFFE
:10021000FFFFFFFFFFFFFFFFFFFFFFFFFFFFFFFFEE
:10022000FFFFFFFFFFFFFFFFFFFFFFFFFFFFFFFFDE
:10023000FFFFFFFFFFFFFFFFFFFFFFFFFFFFFFFFCE
:10024000FFFFFFFFFFFFFFFFFFFFFFFFFFFFFFFFBE
:10025000FFFFFFFFFFFFFFFFFFFFFFFFFFFFFFFFAE
:10026000FFFFFFFFFFFFFFFFFFFFFFFFFFFFFFFF9E
:10027000FFFFFFFFFFFFFFFFFFFFFFFFFFFFFFFF8E
:10028000FFFFFFFFFFFFFFFFFFFFFFFFFFFFFFFF7E
:10029000FFFFFFFFFFFFFFFFFFFFFFFFFFFFFFFF6E
:1002A000FFFFFFFFFFFFFFFFFFFFFFFFFFFFFFFF5E
:1002B000FFFFFFFFFFFFFFFFFFFFFFFFFFFFFFFF4E
:1002C000FFFFFFFFFFFFFFFFFFFFFFFFFFFFFFFF3E
:1002D000FFFFFFFFFFFFFFFFFFFFFFFFFFFFFFFF2E
:1002E000FFFFFFFFFFFFFFFFFFFFFFFFFFFFFFFF1E
:1002F000FFFFFFFFFFFFFFFFFFFFFFFFFFFFFFFF0E
:10030000074B40201A1DD16F0143D1675968054A38
:100310000A405A6059688022D2000A435A607047E6
:1003200000800440FFFBFFFF094B8021DA6F0A4386
:10033000DA67084BFC2252421A60074A4121DA6010
:10034000064A49421A61E022520099507047C0465D
:100350000480044000C00040FFFFFF01030002FFD3
:1003600010B500F0E9F8FFF7CBFF00F083F9284B58
:10037000FA211868890000F0ACF900F099F806211C
:100380000022244800F0BAF8FFF7CEFF002000F06A
:1003900077F9012000F074F9022000F071F90320D0
:1003A00000F06EF91C4C002323602368642B0DD9E8
:1003B000002000F065F9012000F062F9022000F051
:1003C0005FF9032000F05CF900232360002111484D
:1003D00000F024F8002100F05FF901210D4800F041
:1003E0001DF8012100F058F902210A4800F016F822
:1003F000022100F051F90321064800F00FF8032113
:1004000000F04AF9044B1A6801321A60CDE7C04681
:1004100000000010008005401000001000B502230D
:1004200082681A42FCD0144B8361012382681A420D
:10043000FCD04369022382681A42FCD0032319408E
:100440000E4B090119438161012382681A42FCD0D5
:10045000426903231A401202022381681942FCD028
:10046000074B8361012381681942FCD04369101C4A
:10047000184380B200BDC04601000007800000079D
:10048000AA00100700B5074B0122D968114208D015
:10049000DA60054B1A6801321A60044B1A6801329F
:1004A0001A6000BD00400040080000100400001069
:1004B00010B50E4B8022191DCC6FD2001443CC67AF
:1004C0005C6880218C435C605C6821435960084B08
:1004D00000211960074B8021186018680906014344
:1004E000196001219960044B1A6010BD008004401E
:1004F000080000100040004000E100E0F0B50C4BA7
:100500000124DC670B4B80261D1DEF6F36013E4337
:10051000EE675D68A5435D605D6825435D6004230B
:1005200041624260036003681C430460F0BDC04642
:1005300004E100E00080044070B51D4D00206B6AAE
:10054000DB051B0F013B0E2B02D81A4A9B00985863
:10055000696A2A6F0326164B3240174C022A0CD0C8
:10056000B24212D0012A03D11B6C1E40022E01D0D0
:10057000124B00E00023236012E01F2319404900C2
:10058000023100F0A6F820600AE0196C0A40022A45
:10059000F0D09B681F200949184001304143216079
:1005A000054CA96F206800F094F8206070BDC0462B
:1005B000008004404807000000000010001BB70046
:1005C000F0B5224C224F231C85B0943301220290B7
:1005D00008261A603A1DD667221DD06F8021C901F6
:1005E0000143D16762681B4DB24362606268324367
:1005F00062601968184B186800F06BF804230299C0
:100600002B60D840019000F064F8231CF0330138CF
:10061000FF2228621A601868296A1B68029A0393ED
:10062000019B013001315143584300F052F8039AC5
:10063000F434D343C01882231B012060AB603E60BA
:100640002B68012213432B6005B0F0BD00800440ED
:1006500000E100E0004006400000001000B5044A40
:10066000042391681942FCD0014BD86100BDC046FB
:100670000040064008B5E1204002FFF7A1FF08BD99
:1006800010B5041C2A20FFF7E9FF5420FFF7E6FF0E
:10069000E0B2FFF7E3FF10BD38B5041C2A200D1CA3
:1006A000FFF7DCFF6420FFF7D9FF200AFFF7D6FF32
:1006B0004420FFF7D3FFE0B2FFF7D0FF5020FFF751
:1006C000CDFFE8B2FFF7CAFF38BD08B5FFF748FE17
:1006D00008BD002931D00122D207030901E0090138
:1006E00012099942FBD9430801E049005208994296
:1006F000FBD900E04908401A07D35241FAD301461A
:100700001046704749084018F7D29218FAD340189B
:10071000014610467047CB0F00D04942021000D569
:100720004042534008B5FFF7D4FF0CBC521000D331
:100730004042002A00D549421847F446002000F004
:1007400001F860477047000020A1070000350C0049
:10075000E0C81000C05C1500006A180040771B005C
:1007600080841E00C0912100009F240040AC27001F
:10077000E032290020402C00604D2F0000D43000D2
:0407800040E1330021
:0407840080C3C90164
:04000003000000E514
:00000001FF
